{
  "contractName": "AssetTokenization",
  "abi": [
    {
      "constant": false,
      "inputs": [],
      "name": "renounceOwnership",
      "outputs": [],
      "payable": false,
      "stateMutability": "nonpayable",
      "type": "function"
    },
    {
      "constant": true,
      "inputs": [],
      "name": "owner",
      "outputs": [
        {
          "name": "",
          "type": "address"
        }
      ],
      "payable": false,
      "stateMutability": "view",
      "type": "function"
    },
    {
      "constant": true,
      "inputs": [],
      "name": "isOwner",
      "outputs": [
        {
          "name": "",
          "type": "bool"
        }
      ],
      "payable": false,
      "stateMutability": "view",
      "type": "function"
    },
    {
      "constant": false,
      "inputs": [
        {
          "name": "newOwner",
          "type": "address"
        }
      ],
      "name": "transferOwnership",
      "outputs": [],
      "payable": false,
      "stateMutability": "nonpayable",
      "type": "function"
    },
    {
      "inputs": [
        {
          "name": "name",
          "type": "string"
        },
        {
          "name": "symbol",
          "type": "string"
        },
        {
          "name": "totalSupply",
          "type": "uint256"
        }
      ],
      "payable": false,
      "stateMutability": "nonpayable",
      "type": "constructor"
    },
    {
      "anonymous": false,
      "inputs": [
        {
          "indexed": true,
          "name": "previousOwner",
          "type": "address"
        },
        {
          "indexed": true,
          "name": "newOwner",
          "type": "address"
        }
      ],
      "name": "OwnershipTransferred",
      "type": "event"
    },
    {
      "anonymous": false,
      "inputs": [
        {
          "indexed": true,
          "name": "from",
          "type": "address"
        },
        {
          "indexed": true,
          "name": "to",
          "type": "address"
        },
        {
          "indexed": false,
          "name": "value",
          "type": "uint256"
        }
      ],
      "name": "Transfer",
      "type": "event"
    },
    {
      "anonymous": false,
      "inputs": [
        {
          "indexed": true,
          "name": "owner",
          "type": "address"
        },
        {
          "indexed": true,
          "name": "spender",
          "type": "address"
        },
        {
          "indexed": false,
          "name": "value",
          "type": "uint256"
        }
      ],
      "name": "Approval",
      "type": "event"
    },
    {
      "constant": true,
      "inputs": [],
      "name": "name",
      "outputs": [
        {
          "name": "",
          "type": "string"
        }
      ],
      "payable": false,
      "stateMutability": "view",
      "type": "function"
    },
    {
      "constant": true,
      "inputs": [],
      "name": "symbol",
      "outputs": [
        {
          "name": "",
          "type": "string"
        }
      ],
      "payable": false,
      "stateMutability": "view",
      "type": "function"
    },
    {
      "constant": true,
      "inputs": [],
      "name": "decimals",
      "outputs": [
        {
          "name": "",
          "type": "uint8"
        }
      ],
      "payable": false,
      "stateMutability": "view",
      "type": "function"
    },
    {
      "constant": true,
      "inputs": [],
      "name": "totalSupply",
      "outputs": [
        {
          "name": "",
          "type": "uint256"
        }
      ],
      "payable": false,
      "stateMutability": "view",
      "type": "function"
    },
    {
      "constant": true,
      "inputs": [
        {
          "name": "tokenHolder",
          "type": "address"
        }
      ],
      "name": "balanceOf",
      "outputs": [
        {
          "name": "",
          "type": "uint256"
        }
      ],
      "payable": false,
      "stateMutability": "view",
      "type": "function"
    },
    {
      "constant": false,
      "inputs": [
        {
          "name": "to",
          "type": "address"
        },
        {
          "name": "value",
          "type": "uint256"
        }
      ],
      "name": "transfer",
      "outputs": [
        {
          "name": "",
          "type": "bool"
        }
      ],
      "payable": false,
      "stateMutability": "nonpayable",
      "type": "function"
    },
    {
      "constant": true,
      "inputs": [
        {
          "name": "owner",
          "type": "address"
        },
        {
          "name": "spender",
          "type": "address"
        }
      ],
      "name": "allowance",
      "outputs": [
        {
          "name": "",
          "type": "uint256"
        }
      ],
      "payable": false,
      "stateMutability": "view",
      "type": "function"
    },
    {
      "constant": false,
      "inputs": [
        {
          "name": "spender",
          "type": "address"
        },
        {
          "name": "value",
          "type": "uint256"
        }
      ],
      "name": "approve",
      "outputs": [
        {
          "name": "",
          "type": "bool"
        }
      ],
      "payable": false,
      "stateMutability": "nonpayable",
      "type": "function"
    },
    {
      "constant": false,
      "inputs": [
        {
          "name": "from",
          "type": "address"
        },
        {
          "name": "to",
          "type": "address"
        },
        {
          "name": "value",
          "type": "uint256"
        }
      ],
      "name": "transferFrom",
      "outputs": [
        {
          "name": "",
          "type": "bool"
        }
      ],
      "payable": false,
      "stateMutability": "nonpayable",
      "type": "function"
    },
    {
      "constant": true,
      "inputs": [
        {
          "name": "name_",
          "type": "bytes32"
        }
      ],
      "name": "getDocument",
      "outputs": [
        {
          "name": "",
          "type": "string"
        },
        {
          "name": "",
          "type": "bytes32"
        }
      ],
      "payable": false,
      "stateMutability": "view",
      "type": "function"
    },
    {
      "constant": false,
      "inputs": [
        {
          "name": "name_",
          "type": "bytes32"
        },
        {
          "name": "uri",
          "type": "string"
        },
        {
          "name": "documentHash",
          "type": "bytes32"
        }
      ],
      "name": "setDocument",
      "outputs": [],
      "payable": false,
      "stateMutability": "nonpayable",
      "type": "function"
    },
    {
      "constant": false,
      "inputs": [
        {
          "name": "to",
          "type": "address"
        }
      ],
      "name": "issue",
      "outputs": [],
      "payable": false,
      "stateMutability": "nonpayable",
      "type": "function"
    },
    {
      "constant": false,
      "inputs": [
        {
          "name": "from",
          "type": "address"
        },
        {
          "name": "to",
          "type": "address"
        },
        {
          "name": "value",
          "type": "uint256"
        }
      ],
      "name": "withdraw",
      "outputs": [
        {
          "name": "",
          "type": "bool"
        }
      ],
      "payable": false,
      "stateMutability": "nonpayable",
      "type": "function"
    }
  ],
  "bytecode": "0x60806040523480156200001157600080fd5b506040516200145f3803806200145f833981810160405260608110156200003757600080fd5b8101908080516401000000008111156200005057600080fd5b820160208101848111156200006457600080fd5b81516401000000008111828201871017156200007f57600080fd5b505092919060200180516401000000008111156200009c57600080fd5b82016020810184811115620000b057600080fd5b8151640100000000811182820187101715620000cb57600080fd5b505060209091015190925090506000620000ed6001600160e01b036200018516565b600080546001600160a01b0319166001600160a01b0383169081178255604051929350917f8be0079c531659141344cd1fd0a4f28419497f9722a3daafe3b4186f6b6457e0908290a35082516200014c9060019060208601906200018a565b508151620001629060029060208501906200018a565b506004805460ff19166012179081905560ff16600a0a02600355506200022c9050565b335b90565b828054600181600116156101000203166002900490600052602060002090601f016020900481019282601f10620001cd57805160ff1916838001178555620001fd565b82800160010185558215620001fd579182015b82811115620001fd578251825591602001919060010190620001e0565b506200020b9291506200020f565b5090565b6200018791905b808211156200020b576000815560010162000216565b611223806200023c6000396000f3fe608060405234801561001057600080fd5b50600436106100db5760003560e01c8063010648ca146100e057806306fdde0314610157578063095ea7b3146101d457806318160ddd1461021457806323b872dd1461022e578063313ce5671461026457806370a0823114610282578063715018a6146102a857806371e928af146102b05780638da5cb5b146102d65780638f32d59b146102fa57806395d89b4114610302578063a9059cbb1461030a578063b10d6b4114610336578063d9caed12146103d2578063dd62ed3e14610408578063f2fde38b14610436575b600080fd5b610155600480360360608110156100f657600080fd5b81359190810190604081016020820135600160201b81111561011757600080fd5b82018360208201111561012957600080fd5b803590602001918460018302840111600160201b8311171561014a57600080fd5b91935091503561045c565b005b61015f61051c565b6040805160208082528351818301528351919283929083019185019080838360005b83811015610199578181015183820152602001610181565b50505050905090810190601f1680156101c65780820380516001836020036101000a031916815260200191505b509250505060405180910390f35b610200600480360360408110156101ea57600080fd5b506001600160a01b0381351690602001356105b2565b604080519115158252519081900360200190f35b61021c610668565b60408051918252519081900360200190f35b6102006004803603606081101561024457600080fd5b506001600160a01b0381358116916020810135909116906040013561066e565b61026c6107a0565b6040805160ff9092168252519081900360200190f35b61021c6004803603602081101561029857600080fd5b50356001600160a01b03166107a9565b6101556107c4565b610155600480360360208110156102c657600080fd5b50356001600160a01b0316610843565b6102de61099a565b604080516001600160a01b039092168252519081900360200190f35b6102006109a9565b61015f6109cd565b6102006004803603604081101561032057600080fd5b506001600160a01b038135169060200135610a2b565b6103536004803603602081101561034c57600080fd5b5035610a48565b6040518080602001838152602001828103825284818151815260200191508051906020019080838360005b8381101561039657818101518382015260200161037e565b50505050905090810190601f1680156103c35780820380516001836020036101000a031916815260200191505b50935050505060405180910390f35b610200600480360360608110156103e857600080fd5b506001600160a01b03813581169160208101359091169060400135610b61565b61021c6004803603604081101561041e57600080fd5b506001600160a01b0381358116916020013516610baa565b6101556004803603602081101561044c57600080fd5b50356001600160a01b0316610bd5565b6104646109a9565b6104a3576040805162461bcd60e51b8152602060048201819052602482015260008051602061118f833981519152604482015290519081900360640190fd5b6040805160606020601f86018190040282018101835291810184815290918291908690869081908501838280828437600092018290525093855250505060209182018490528681526007825260409020825180519192610508928492909101906110af565b506020820151816001015590505050505050565b60018054604080516020601f600260001961010087891615020190951694909404938401819004810282018101909252828152606093909290918301828280156105a75780601f1061057c576101008083540402835291602001916105a7565b820191906000526020600020905b81548152906001019060200180831161058a57829003601f168201915b505050505090505b90565b60006001600160a01b038316610600576040805162461bcd60e51b815260206004820152600e60248201526d34b73b30b634b21039b2b73232b960911b604482015290519081900360640190fd5b3360008181526006602090815260408083206001600160a01b03881680855290835292819020869055805186815290519293927f8c5be1e5ebec7d5bd14f71427d1e84f3dd0314c0f7b2291e5b200ac8c7c3b925929181900390910190a35060015b92915050565b60035490565b6001600160a01b03831660009081526006602090815260408083203384529091528120548211156106df576040805162461bcd60e51b8152602060048201526016602482015275696e73756666696369656e7420616c6c6f77616e636560501b604482015290519081900360640190fd5b6001600160a01b03841660009081526006602090815260408083203384529091529020548211610766576001600160a01b038416600090815260066020908152604080832033845290915290205461073d908363ffffffff610c2816565b6001600160a01b038516600090815260066020908152604080832033845290915290205561078b565b6001600160a01b03841660009081526006602090815260408083203384529091528120555b610796848484610c71565b5060019392505050565b60045460ff1690565b6001600160a01b031660009081526005602052604090205490565b6107cc6109a9565b61080b576040805162461bcd60e51b8152602060048201819052602482015260008051602061118f833981519152604482015290519081900360640190fd5b600080546040516001600160a01b03909116906000805160206111af833981519152908390a3600080546001600160a01b0319169055565b61084b6109a9565b61088a576040805162461bcd60e51b8152602060048201819052602482015260008051602061118f833981519152604482015290519081900360640190fd5b610895600354610e06565b6108d9576040805162461bcd60e51b815260206004820152601060248201526f7472616e73666572206661696c75726560801b604482015290519081900360640190fd5b6001600160a01b038116610927576040805162461bcd60e51b815260206004820152601060248201526f34b73b30b634b2103932b1b2b4bb32b960811b604482015290519081900360640190fd5b6003546001600160a01b0382166000908152600560205260409020546109529163ffffffff610e3116565b6001600160a01b03821660008181526005602090815260408083209490945560035484519081529351929391926000805160206111cf8339815191529281900390910190a350565b6000546001600160a01b031690565b600080546001600160a01b03166109be610e89565b6001600160a01b031614905090565b60028054604080516020601f60001961010060018716150201909416859004938401819004810282018101909252828152606093909290918301828280156105a75780601f1061057c576101008083540402835291602001916105a7565b6000610a3f610a38610e89565b8484610c71565b50600192915050565b6000818152600760205260408120546060919060026000196101006001841615020190911604610ab4576040805162461bcd60e51b8152602060048201526012602482015271111bd8dd5b595b9d081b9bdd08199bdd5b9960721b604482015290519081900360640190fd5b60008381526007602090815260409182902060018082015482548551600293821615610100026000190190911692909204601f81018590048502830185019095528482529193919290918491830182828015610b515780601f10610b2657610100808354040283529160200191610b51565b820191906000526020600020905b815481529060010190602001808311610b3457829003601f168201915b5050505050915091509150915091565b6000610b6b6109a9565b61078b576040805162461bcd60e51b8152602060048201819052602482015260008051602061118f833981519152604482015290519081900360640190fd5b6001600160a01b03918216600090815260066020908152604080832093909416825291909152205490565b610bdd6109a9565b610c1c576040805162461bcd60e51b8152602060048201819052602482015260008051602061118f833981519152604482015290519081900360640190fd5b610c2581610e8d565b50565b6000610c6a83836040518060400160405280601e81526020017f536166654d6174683a207375627472616374696f6e206f766572666c6f770000815250610f1b565b9392505050565b6001600160a01b038316610ccc576040805162461bcd60e51b815260206004820152601e60248201527f7472616e736665722066726f6d20746865207a65726f20616464726573730000604482015290519081900360640190fd5b6001600160a01b038216610d26576040805162461bcd60e51b815260206004820152601c60248201527b7472616e7366657220746f20746865207a65726f206164647265737360201b604482015290519081900360640190fd5b604080518082018252601f81527f7472616e7366657220616d6f756e7420657863656564732062616c616e6365006020808301919091526001600160a01b038616600090815260059091529190912054610d8791839063ffffffff610f1b16565b6001600160a01b038085166000908152600560205260408082209390935590841681522054610dbc908263ffffffff610e3116565b6001600160a01b0380841660008181526005602090815260409182902094909455805185815290519193928716926000805160206111cf83398151915292918290030190a3505050565b600081610e2a6001610e1e838263ffffffff610fb216565b9063ffffffff610ff116565b1492915050565b600082820183811015610c6a576040805162461bcd60e51b815260206004820152601b60248201527a536166654d6174683a206164646974696f6e206f766572666c6f7760281b604482015290519081900360640190fd5b3390565b6001600160a01b038116610ed25760405162461bcd60e51b81526004018080602001828103825260268152602001806111486026913960400191505060405180910390fd5b600080546040516001600160a01b03808516939216916000805160206111af83398151915291a3600080546001600160a01b0319166001600160a01b0392909216919091179055565b60008184841115610faa5760405162461bcd60e51b81526004018080602001828103825283818151815260200191508051906020019080838360005b83811015610f6f578181015183820152602001610f57565b50505050905090810190601f168015610f9c5780820380516001836020036101000a031916815260200191505b509250505060405180910390fd5b505050900390565b6000610c6a83836040518060400160405280601a815260200179536166654d6174683a206469766973696f6e206279207a65726f60301b81525061104a565b60008261100057506000610662565b8282028284828161100d57fe5b0414610c6a5760405162461bcd60e51b815260040180806020018281038252602181526020018061116e6021913960400191505060405180910390fd5b600081836110995760405162461bcd60e51b8152602060048201818152835160248401528351909283926044909101919085019080838360008315610f6f578181015183820152602001610f57565b5060008385816110a557fe5b0495945050505050565b828054600181600116156101000203166002900490600052602060002090601f016020900481019282601f106110f057805160ff191683800117855561111d565b8280016001018555821561111d579182015b8281111561111d578251825591602001919060010190611102565b5061112992915061112d565b5090565b6105af91905b80821115611129576000815560010161113356fe4f776e61626c653a206e6577206f776e657220697320746865207a65726f2061646472657373536166654d6174683a206d756c7469706c69636174696f6e206f766572666c6f774f776e61626c653a2063616c6c6572206973206e6f7420746865206f776e65728be0079c531659141344cd1fd0a4f28419497f9722a3daafe3b4186f6b6457e0ddf252ad1be2c89b69c2b068fc378daa952ba7f163c4a11628f55a4df523b3efa265627a7a72305820eb59dede5b5ce09292908a2ee135534c7f216df4d5d5e3c77cdf4c14bc3f475764736f6c634300050a0032",
  "source": "pragma solidity ^0.5.0;\n\nimport \"openzeppelin-solidity/contracts/math/SafeMath.sol\";\nimport \"openzeppelin-solidity/contracts/ownership/Ownable.sol\";\nimport \"openzeppelin-solidity/contracts/token/ERC20/IERC20.sol\";\nimport \"openzeppelin-solidity/contracts/utils/Address.sol\";\n\ncontract AssetTokenization is IERC20, Ownable {\n    using SafeMath for uint256;\n    using Address for address;\n\n  string internal _name;\n  string internal _symbol;\n  uint256 internal _totalSupply;\n  uint8 internal _decimals;\n\n  // Mapping from tokenHolder to balance.\n  mapping(address => uint256) internal _balances;\n\n  // Mapping from (tokenHolder, spender) to allowed value.\n  mapping (address => mapping (address => uint256)) internal _allowed;\n\n    struct Doc {\n    string docURI;\n    bytes32 docHash;\n  }\n  // Mapping for token URIs.\n  mapping(bytes32 => Doc) internal _documents;\n\n\n\n    constructor(\n    string memory name,\n    string memory symbol,\n    uint256 totalSupply\n  )\n    public\n  {\n   _name = name;\n   _symbol = symbol;\n   _decimals = 18;\n\n   _totalSupply = totalSupply * (uint256(10) ** _decimals);\n  }\n    /**\n   * @dev Get the name of the token, e.g., \"MyToken\".\n   * @return Name of the token.\n   */\n  function name() external view returns(string memory) {\n    return _name;\n  }\n  /**\n   * @dev Get the symbol of the token, e.g., \"MYT\".\n   * @return Symbol of the token.\n   */\n  function symbol() external view returns(string memory) {\n    return _symbol;\n  }\n\n /**\n   * @dev Get the decimals\n   * @return decimals of the token.\n   */\n  function decimals() external view returns (uint8) {\n        return _decimals;\n    }\n\n    /**\n   * @dev Get the total number of issued tokens.\n   * @return Total supply of tokens currently in circulation.\n   */\n  function totalSupply() external view   returns (uint256) {\n    return _totalSupply;\n  }\n  /**\n   * @dev Get the balance of the account with address 'tokenHolder'.\n   * @param tokenHolder Address for which the balance is returned.\n   * @return Amount of token held by 'tokenHolder' in the token contract.\n   */\n  function balanceOf(address tokenHolder) external view   returns (uint256) {\n    return _balances[tokenHolder];\n  }\n  /**\n   * @dev Transfer token for a specified address.\n   * @param to The address to transfer to.\n   * @param value The value to be transferred.\n   * @return A boolean that indicates if the operation was successful.\n   */\n  function transfer(address to, uint256 value) external   returns (bool) {\n     _transfer(_msgSender(), to, value);\n    return true;\n  }\n  /**\n   * @dev Check the value of tokens that an owner allowed to a spender.\n   * @param owner address The address which owns the funds.\n   * @param spender address The address which will spend the funds.\n   * @return A uint256 specifying the value of tokens still available for the spender.\n   */\n  function allowance(address owner, address spender) external view   returns (uint256) {\n    return _allowed[owner][spender];\n  }\n  /**\n   * @dev Approve the passed address to spend the specified amount of tokens on behalf of 'msg.sender'.\n   * @param spender The address which will spend the funds.\n   * @param value The amount of tokens to be spent.\n   * @return A boolean that indicates if the operation was successful.\n   */\n  function approve(address spender, uint256 value) external   returns (bool) {\n    require(spender != address(0), \"invalid sender\"); \n    _allowed[msg.sender][spender] = value;\n    emit Approval(msg.sender, spender, value);\n    return true;\n  }\n  /**\n   * @dev Transfer tokens from one address to another.\n   * @param from The address which you want to transfer tokens from.\n   * @param to The address which you want to transfer to.\n   * @param value The amount of tokens to be transferred.\n   * @return A boolean that indicates if the operation was successful.\n   */\n  function transferFrom(address from, address to, uint256 value) external   returns (bool) {\n    require( (value <= _allowed[from][msg.sender]), \"insufficient allowance\"); \n\n    if(_allowed[from][msg.sender] >= value) {\n      _allowed[from][msg.sender] = _allowed[from][msg.sender].sub(value);\n    } else {\n      _allowed[from][msg.sender] = 0;\n    }\n\n    _transfer(from, to, value);\n    return true;\n  }\n\n    /**\n   * @dev Access a document associated with the token.\n   * @param name_ Short name (represented as a bytes32) associated to the document.\n   * @return Requested document + document hash.\n   */\n  function getDocument(bytes32 name_) external view returns (string memory, bytes32) {\n    require(bytes(_documents[name_].docURI).length != 0, \"Document not found\"); \n    return (\n      _documents[name_].docURI,\n      _documents[name_].docHash\n    );\n  }\n  /**\n   * @dev Associate a document with the token.\n   * @param name_ Short name (represented as a bytes32) associated to the document.\n   * @param uri Document content.\n   * @param documentHash Hash of the document [optional parameter].\n   */\n  function setDocument(bytes32 name_, string calldata uri, bytes32 documentHash) external onlyOwner {\n\n    _documents[name_] = Doc({\n      docURI: uri,\n      docHash: documentHash\n    });\n  \n  }\n\n    /**\n   * @dev Perform the issuance of tokens.\n   * @param to Token recipient.\n   */\n  function issue(address to)\n    external onlyOwner\n  {\n    require(_isMultiple(_totalSupply), \"transfer failure\"); \n    require(to != address(0), \"invalid receiver\"); \n\n    _balances[to] = _balances[to].add(_totalSupply);\n\n    emit Transfer(address(0), to, _totalSupply); // ERC20 retrocompatibility\n  }\n\n    /**\n   * @dev Check if 'value' is multiple of the granularity.\n   * @param value The quantity that want's to be checked.\n   * @return 'true' if 'value' is a multiple of the granularity.\n   */\n  function _isMultiple(uint256 value) internal pure returns(bool) {\n    return(value.div(1).mul(1) == value);\n  }\n      /**\n     * @dev Moves tokens `amount` from `sender` to `recipient`.\n     *\n     * This is internal function is equivalent to {transfer}\n     *\n     * Emits a {Transfer} event.\n     *\n     * Requirements:\n     *\n     * - `sender` cannot be the zero address.\n     * - `recipient` cannot be the zero address.\n     * - `sender` must have a balance of at least `amount`.\n     */\n    function _transfer(address sender, address recipient, uint256 amount) internal  {\n        require(sender != address(0), \"transfer from the zero address\");\n        require(recipient != address(0), \"transfer to the zero address\");\n\n        _balances[sender] = _balances[sender].sub(amount, \"transfer amount exceeds balance\");\n        _balances[recipient] = _balances[recipient].add(amount);\n        emit Transfer(sender, recipient, amount);\n    }\n  /**\n   * @dev withdraw tokens from specific account to provided account.\n   * @param from The address from whom tokens to be withdrawn.\n   * @param to The address to transfer tokens.\n   * @param value The value of tokens to be withdrawn.\n   * @return A boolean that indicates if the operation was successful.\n   */\n  function withdraw(address from, address to, uint256 value) external onlyOwner  returns (bool) {\n     _transfer(from, to, value);\n    return true;\n  }\n\n}",
  "sourcePath": "/home/malik/STO-tokenization/asset-tokenization/contracts/AssetTokenization.sol",
  "compiler": {
    "name": "solc",
    "version": "0.5.10+commit.5a6ea5b1.Emscripten.clang"
  },
  "schemaVersion": "3.0.23",
  "updatedAt": "2020-06-24T16:56:08.815Z",
  "devdoc": {
    "methods": {
      "allowance(address,address)": {
        "details": "Check the value of tokens that an owner allowed to a spender.",
        "params": {
          "owner": "address The address which owns the funds.",
          "spender": "address The address which will spend the funds."
        },
        "return": "A uint256 specifying the value of tokens still available for the spender."
      },
      "approve(address,uint256)": {
        "details": "Approve the passed address to spend the specified amount of tokens on behalf of 'msg.sender'.",
        "params": {
          "spender": "The address which will spend the funds.",
          "value": "The amount of tokens to be spent."
        },
        "return": "A boolean that indicates if the operation was successful."
      },
      "balanceOf(address)": {
        "details": "Get the balance of the account with address 'tokenHolder'.",
        "params": {
          "tokenHolder": "Address for which the balance is returned."
        },
        "return": "Amount of token held by 'tokenHolder' in the token contract."
      },
      "decimals()": {
        "details": "Get the decimals",
        "return": "decimals of the token."
      },
      "getDocument(bytes32)": {
        "details": "Access a document associated with the token.",
        "params": {
          "name_": "Short name (represented as a bytes32) associated to the document."
        },
        "return": "Requested document + document hash."
      },
      "isOwner()": {
        "details": "Returns true if the caller is the current owner."
      },
      "issue(address)": {
        "details": "Perform the issuance of tokens.",
        "params": {
          "to": "Token recipient."
        }
      },
      "name()": {
        "details": "Get the name of the token, e.g., \"MyToken\".",
        "return": "Name of the token."
      },
      "owner()": {
        "details": "Returns the address of the current owner."
      },
      "renounceOwnership()": {
        "details": "Leaves the contract without owner. It will not be possible to call `onlyOwner` functions anymore. Can only be called by the current owner.     * NOTE: Renouncing ownership will leave the contract without an owner, thereby removing any functionality that is only available to the owner."
      },
      "setDocument(bytes32,string,bytes32)": {
        "details": "Associate a document with the token.",
        "params": {
          "documentHash": "Hash of the document [optional parameter].",
          "name_": "Short name (represented as a bytes32) associated to the document.",
          "uri": "Document content."
        }
      },
      "symbol()": {
        "details": "Get the symbol of the token, e.g., \"MYT\".",
        "return": "Symbol of the token."
      },
      "totalSupply()": {
        "details": "Get the total number of issued tokens.",
        "return": "Total supply of tokens currently in circulation."
      },
      "transfer(address,uint256)": {
        "details": "Transfer token for a specified address.",
        "params": {
          "to": "The address to transfer to.",
          "value": "The value to be transferred."
        },
        "return": "A boolean that indicates if the operation was successful."
      },
      "transferFrom(address,address,uint256)": {
        "details": "Transfer tokens from one address to another.",
        "params": {
          "from": "The address which you want to transfer tokens from.",
          "to": "The address which you want to transfer to.",
          "value": "The amount of tokens to be transferred."
        },
        "return": "A boolean that indicates if the operation was successful."
      },
      "transferOwnership(address)": {
        "details": "Transfers ownership of the contract to a new account (`newOwner`). Can only be called by the current owner."
      },
      "withdraw(address,address,uint256)": {
        "details": "withdraw tokens from specific account to provided account.",
        "params": {
          "from": "The address from whom tokens to be withdrawn.",
          "to": "The address to transfer tokens.",
          "value": "The value of tokens to be withdrawn."
        },
        "return": "A boolean that indicates if the operation was successful."
      }
    }
  },
  "userdoc": {
    "methods": {}
  }
}