{
  "contractName": "CourseV1",
  "abi": [
    {
      "constant": true,
      "inputs": [],
      "name": "totallStudents",
      "outputs": [
        {
          "name": "",
          "type": "uint256"
        }
      ],
      "payable": false,
      "stateMutability": "view",
      "type": "function"
    },
    {
      "constant": true,
      "inputs": [],
      "name": "owner",
      "outputs": [
        {
          "name": "",
          "type": "address"
        }
      ],
      "payable": false,
      "stateMutability": "view",
      "type": "function"
    },
    {
      "constant": true,
      "inputs": [],
      "name": "teacher",
      "outputs": [
        {
          "name": "",
          "type": "address"
        }
      ],
      "payable": false,
      "stateMutability": "view",
      "type": "function"
    },
    {
      "inputs": [],
      "payable": false,
      "stateMutability": "nonpayable",
      "type": "constructor"
    },
    {
      "anonymous": false,
      "inputs": [
        {
          "indexed": true,
          "name": "student",
          "type": "address"
        }
      ],
      "name": "StudentEnrolled",
      "type": "event"
    },
    {
      "anonymous": false,
      "inputs": [
        {
          "indexed": true,
          "name": "student",
          "type": "address"
        },
        {
          "indexed": false,
          "name": "marks",
          "type": "uint256"
        }
      ],
      "name": "MarksIncreased",
      "type": "event"
    },
    {
      "anonymous": false,
      "inputs": [
        {
          "indexed": true,
          "name": "student",
          "type": "address"
        },
        {
          "indexed": false,
          "name": "marks",
          "type": "uint256"
        }
      ],
      "name": "MarksDecreased",
      "type": "event"
    },
    {
      "constant": false,
      "inputs": [
        {
          "name": "_student",
          "type": "address"
        },
        {
          "name": "_marks",
          "type": "uint256"
        }
      ],
      "name": "enroll",
      "outputs": [],
      "payable": false,
      "stateMutability": "nonpayable",
      "type": "function"
    },
    {
      "constant": false,
      "inputs": [
        {
          "name": "_student",
          "type": "address"
        },
        {
          "name": "_marks",
          "type": "uint256"
        }
      ],
      "name": "increaseMarks",
      "outputs": [],
      "payable": false,
      "stateMutability": "nonpayable",
      "type": "function"
    },
    {
      "constant": false,
      "inputs": [
        {
          "name": "_student",
          "type": "address"
        },
        {
          "name": "_marks",
          "type": "uint256"
        }
      ],
      "name": "decreaseMarks",
      "outputs": [],
      "payable": false,
      "stateMutability": "nonpayable",
      "type": "function"
    },
    {
      "constant": true,
      "inputs": [
        {
          "name": "_student",
          "type": "address"
        }
      ],
      "name": "getMarks",
      "outputs": [
        {
          "name": "",
          "type": "uint256"
        }
      ],
      "payable": false,
      "stateMutability": "view",
      "type": "function"
    }
  ],
  "bytecode": "0x608060405234801561001057600080fd5b50336000806101000a81548173ffffffffffffffffffffffffffffffffffffffff021916908373ffffffffffffffffffffffffffffffffffffffff16021790555061085f806100606000396000f3fe608060405234801561001057600080fd5b506004361061009a576000357c0100000000000000000000000000000000000000000000000000000000900480638324a9b8116100785780638324a9b8146101635780638da5cb5b146101b15780639eaa6465146101fb578063b46bff89146102495761009a565b806306ff51b11461009f5780636111ca21146100f7578063790f33cd14610145575b600080fd5b6100e1600480360360208110156100b557600080fd5b81019080803573ffffffffffffffffffffffffffffffffffffffff169060200190929190505050610293565b6040518082815260200191505060405180910390f35b6101436004803603604081101561010d57600080fd5b81019080803573ffffffffffffffffffffffffffffffffffffffff169060200190929190803590602001909291905050506102dc565b005b61014d61048b565b6040518082815260200191505060405180910390f35b6101af6004803603604081101561017957600080fd5b81019080803573ffffffffffffffffffffffffffffffffffffffff16906020019092919080359060200190929190505050610491565b005b6101b9610660565b604051808273ffffffffffffffffffffffffffffffffffffffff1673ffffffffffffffffffffffffffffffffffffffff16815260200191505060405180910390f35b6102476004803603604081101561021157600080fd5b81019080803573ffffffffffffffffffffffffffffffffffffffff16906020019092919080359060200190929190505050610686565b005b61025161080e565b604051808273ffffffffffffffffffffffffffffffffffffffff1673ffffffffffffffffffffffffffffffffffffffff16815260200191505060405180910390f35b6000600360008373ffffffffffffffffffffffffffffffffffffffff1673ffffffffffffffffffffffffffffffffffffffff168152602001908152602001600020549050919050565b6000809054906101000a900473ffffffffffffffffffffffffffffffffffffffff1673ffffffffffffffffffffffffffffffffffffffff163373ffffffffffffffffffffffffffffffffffffffff1614151561033757600080fd5b6000600360008473ffffffffffffffffffffffffffffffffffffffff1673ffffffffffffffffffffffffffffffffffffffff168152602001908152602001600020541415156103ee576040517f08c379a00000000000000000000000000000000000000000000000000000000081526004018080602001828103825260168152602001807f73747564656e7420616c7265616479206578697374730000000000000000000081525060200191505060405180910390fd5b80600360008473ffffffffffffffffffffffffffffffffffffffff1673ffffffffffffffffffffffffffffffffffffffff168152602001908152602001600020819055506004600081548092919060010191905055508173ffffffffffffffffffffffffffffffffffffffff167fcf2a1c3c7a67eb28c4843f17631ff117d727317fc31e3e6b454c9b83dc789cec60405160405180910390a25050565b60045481565b6000809054906101000a900473ffffffffffffffffffffffffffffffffffffffff1673ffffffffffffffffffffffffffffffffffffffff163373ffffffffffffffffffffffffffffffffffffffff161415156104ec57600080fd5b600081600360008573ffffffffffffffffffffffffffffffffffffffff1673ffffffffffffffffffffffffffffffffffffffff1681526020019081526020016000205403111515610581576000600360008473ffffffffffffffffffffffffffffffffffffffff1673ffffffffffffffffffffffffffffffffffffffff168152602001908152602001600020819055506105cf565b80600360008473ffffffffffffffffffffffffffffffffffffffff1673ffffffffffffffffffffffffffffffffffffffff168152602001908152602001600020600082825403925050819055505b8173ffffffffffffffffffffffffffffffffffffffff167fb06be4b7d3f25454604ff0e611e37c18a2090356e32e4a57a318543aa9761a08600360008573ffffffffffffffffffffffffffffffffffffffff1673ffffffffffffffffffffffffffffffffffffffff168152602001908152602001600020546040518082815260200191505060405180910390a25050565b600160009054906101000a900473ffffffffffffffffffffffffffffffffffffffff1681565b6000809054906101000a900473ffffffffffffffffffffffffffffffffffffffff1673ffffffffffffffffffffffffffffffffffffffff163373ffffffffffffffffffffffffffffffffffffffff161415156106e157600080fd5b6000600360008473ffffffffffffffffffffffffffffffffffffffff1673ffffffffffffffffffffffffffffffffffffffff168152602001908152602001600020541415151561073057600080fd5b80600360008473ffffffffffffffffffffffffffffffffffffffff1673ffffffffffffffffffffffffffffffffffffffff168152602001908152602001600020600082825401925050819055508173ffffffffffffffffffffffffffffffffffffffff167f95a2cfa57fb12df8de7b701d24c57225454e4ef26293dae7d40bf66769221648600360008573ffffffffffffffffffffffffffffffffffffffff1673ffffffffffffffffffffffffffffffffffffffff168152602001908152602001600020546040518082815260200191505060405180910390a25050565b6000809054906101000a900473ffffffffffffffffffffffffffffffffffffffff168156fea165627a7a72305820428f5c0011ebfb5bdc567f763c5e631d0881b38b6b481739a9f7732701e1d2490029",
  "source": "pragma solidity ^0.5.3;\nimport \"./Storage.sol\";\n\n/**\n* @title First version of 'course' smart contract.\n* describing a demo of upgradable smartcontract.\n* course is smartcontract of an academeic subject where teacher enrolling students\n* and as per student's evaluation increase/decrease marks.\n* */\ncontract CourseV1 is Storage {\n    /**\n    * @dev sets teacher\n    * */\n    constructor() public {\n        teacher = msg.sender;\n    }\n    /**\n    * @dev Modifier ensuring only caller is teacher account.\n    * */\n    modifier onlyTeacher() {\n        require (msg.sender == teacher);\n        _;\n    }\n   /**\n   * @dev students can be enrolled by teacher in his course.\n   * Modifier - ensuring only teacher can enroll students\n   * @param _student - student to be enrolled\n   * @param _marks - initial marks (if any) or set default zero.\n    */\n    function enroll(address _student, uint _marks) public onlyTeacher \n    {\n        require (marks[_student] == 0,\"student already exists\");\n        marks[_student] = _marks;\n        totallStudents++;\n        emit StudentEnrolled(_student);\n    }\n    /**\n   * @dev student's marks increase by teacher.\n   * Modifier - ensuring only teacher can increase marks\n   * @param _student - student whose marks to be increased\n   * @param _marks - marks to be increased.\n    */\n    function increaseMarks(address _student, uint _marks) public onlyTeacher \n    {\n        require (marks[_student] != 0);\n        marks[_student] += _marks;\n\n        emit MarksIncreased(_student,marks[_student]);\n    }\n     /**\n   * @dev student's marks decreased by teacher.\n   * Modifier - ensuring only teacher can decrease marks\n   * @param _student - student whose marks to be decreased\n   * @param _marks - marks to be decreased.\n    */\n    function decreaseMarks(address _student, uint _marks) public onlyTeacher \n    {\n        if(marks[_student] - _marks <= 0){\n            marks[_student] = 0;\n        }else{\n            marks[_student] -= _marks;\n        }\n        emit MarksDecreased(_student, marks[_student]);\n    }\n     /**\n   * @dev return student's marks.\n   * @param _student - student whose marks to be returned\n    */\n    function getMarks(address _student) view public returns (uint) {\n        return marks[_student];\n    }\n\n    /**\n    * Event {StudentEnrolled} - when new student enrolled\n    *\n     */\n    event StudentEnrolled(address indexed student);\n    \n    /**\n    * Event {MarksIncreased} - when student's marks increased\n    *\n     */\n    event MarksIncreased(address indexed student, uint marks);\n\n     /**\n    * Event {MarksDecreased} - when student's marks decreased\n    *\n     */\n    event MarksDecreased(address indexed student, uint marks);\n\n}",
  "sourcePath": "/home/malik/STO-tokenization/UpgradeableSmartContract-proxy/contracts/CourseV1.sol",
  "compiler": {
    "name": "solc",
    "version": "0.5.3+commit.10d17f24.Emscripten.clang"
  },
  "schemaVersion": "3.0.23",
  "updatedAt": "2020-05-19T07:07:36.457Z",
  "devdoc": {
    "methods": {
      "constructor": {
        "details": "sets teacher"
      },
      "decreaseMarks(address,uint256)": {
        "details": "student's marks decreased by teacher. Modifier - ensuring only teacher can decrease marks",
        "params": {
          "_marks": "- marks to be decreased.",
          "_student": "- student whose marks to be decreased"
        }
      },
      "enroll(address,uint256)": {
        "details": "students can be enrolled by teacher in his course. Modifier - ensuring only teacher can enroll students",
        "params": {
          "_marks": "- initial marks (if any) or set default zero.",
          "_student": "- student to be enrolled"
        }
      },
      "getMarks(address)": {
        "details": "return student's marks.",
        "params": {
          "_student": "- student whose marks to be returned"
        }
      },
      "increaseMarks(address,uint256)": {
        "details": "student's marks increase by teacher. Modifier - ensuring only teacher can increase marks",
        "params": {
          "_marks": "- marks to be increased.",
          "_student": "- student whose marks to be increased"
        }
      }
    },
    "title": "First version of 'course' smart contract. describing a demo of upgradable smartcontract. course is smartcontract of an academeic subject where teacher enrolling students and as per student's evaluation increase/decrease marks."
  },
  "userdoc": {
    "methods": {}
  }
}