{
  "contractName": "Proxy",
  "abi": [
    {
      "constant": true,
      "inputs": [],
      "name": "totallStudents",
      "outputs": [
        {
          "name": "",
          "type": "uint256"
        }
      ],
      "payable": false,
      "stateMutability": "view",
      "type": "function"
    },
    {
      "constant": true,
      "inputs": [],
      "name": "owner",
      "outputs": [
        {
          "name": "",
          "type": "address"
        }
      ],
      "payable": false,
      "stateMutability": "view",
      "type": "function"
    },
    {
      "constant": true,
      "inputs": [],
      "name": "teacher",
      "outputs": [
        {
          "name": "",
          "type": "address"
        }
      ],
      "payable": false,
      "stateMutability": "view",
      "type": "function"
    },
    {
      "inputs": [],
      "payable": false,
      "stateMutability": "nonpayable",
      "type": "constructor"
    },
    {
      "payable": true,
      "stateMutability": "payable",
      "type": "fallback"
    },
    {
      "constant": false,
      "inputs": [
        {
          "name": "_newCourse",
          "type": "address"
        }
      ],
      "name": "upgradeTo",
      "outputs": [],
      "payable": false,
      "stateMutability": "nonpayable",
      "type": "function"
    }
  ],
  "bytecode": "0x608060405234801561001057600080fd5b5033600160006101000a81548173ffffffffffffffffffffffffffffffffffffffff021916908373ffffffffffffffffffffffffffffffffffffffff160217905550336000806101000a81548173ffffffffffffffffffffffffffffffffffffffff021916908373ffffffffffffffffffffffffffffffffffffffff160217905550610396806100a16000396000f3fe60806040526004361061005c576000357c0100000000000000000000000000000000000000000000000000000000900480633659cfe6146100e6578063790f33cd146101375780638da5cb5b14610162578063b46bff89146101b9575b6000600260009054906101000a900473ffffffffffffffffffffffffffffffffffffffff169050600073ffffffffffffffffffffffffffffffffffffffff168173ffffffffffffffffffffffffffffffffffffffff16141515156100bf57600080fd5b60405136600082376000803683855af43d806000843e81600081146100e2578184f35b8184fd5b3480156100f257600080fd5b506101356004803603602081101561010957600080fd5b81019080803573ffffffffffffffffffffffffffffffffffffffff169060200190929190505050610210565b005b34801561014357600080fd5b5061014c6102d5565b6040518082815260200191505060405180910390f35b34801561016e57600080fd5b506101776102db565b604051808273ffffffffffffffffffffffffffffffffffffffff1673ffffffffffffffffffffffffffffffffffffffff16815260200191505060405180910390f35b3480156101c557600080fd5b506101ce610301565b604051808273ffffffffffffffffffffffffffffffffffffffff1673ffffffffffffffffffffffffffffffffffffffff16815260200191505060405180910390f35b600160009054906101000a900473ffffffffffffffffffffffffffffffffffffffff1673ffffffffffffffffffffffffffffffffffffffff163373ffffffffffffffffffffffffffffffffffffffff1614151561026c57600080fd5b8073ffffffffffffffffffffffffffffffffffffffff16600260009054906101000a900473ffffffffffffffffffffffffffffffffffffffff1673ffffffffffffffffffffffffffffffffffffffff16141515156102c957600080fd5b6102d281610326565b50565b60045481565b600160009054906101000a900473ffffffffffffffffffffffffffffffffffffffff1681565b6000809054906101000a900473ffffffffffffffffffffffffffffffffffffffff1681565b80600260006101000a81548173ffffffffffffffffffffffffffffffffffffffff021916908373ffffffffffffffffffffffffffffffffffffffff1602179055505056fea165627a7a7230582014140695ce2f0f8567b975c5cbaa608b0ff592cd55af5affe9bfa7b8e9fa6f310029",
  "source": "pragma solidity ^0.5.3;\nimport \"./Storage.sol\";\n\n/**\n* @title Proxy\n* This contract delegate's calls to Logic implementation contract with the help of its fallback function.\n* also enables Logic implementation contract to be upgraded.\n */\ncontract Proxy is Storage {\n\n    \n    /**\n     * @dev constructor that sets the owner address\n     */\n    constructor() public {\n        owner = msg.sender;\n        teacher = msg.sender;\n    }\n    \n  /**\n    * @dev Modifier - ensures caller is owner\n    *\n     */\n    modifier onlyOwner() {\n        require (msg.sender == owner);\n        _;\n    }\n\n\n    /**\n     * @dev Upgrades the Course contract address\n     * @param _newCourse address of new/updated course contract\n     */\n    function upgradeTo(address _newCourse) external onlyOwner \n    {\n        require(course != _newCourse);\n        _setCourse(_newCourse);\n    }\n    \n    /**\n     * @dev Fallback function allowing to perform a delegatecall \n     * to the given 'course' contract. This function will return \n     * whatever the 'course' call returns\n     */\n    function () payable external {\n        address impl = course;\n        require(impl != address(0));\n        assembly {\n            let ptr := mload(0x40)\n            calldatacopy(ptr, 0, calldatasize)\n            let result := delegatecall(gas, impl, ptr, calldatasize, 0, 0)\n            let size := returndatasize\n            returndatacopy(ptr, 0, size)\n            \n            switch result\n            case 0 { revert(ptr, size) }\n            default { return(ptr, size) }\n        }\n    }\n    \n    /**\n     * @dev Sets the address of the current course\n     * @param _newCourse address of the new course version\n     */\n    function _setCourse(address _newCourse) internal {\n        course = _newCourse;\n    }\n}\n",
  "sourcePath": "/home/malik/STO-tokenization/UpgradeableSmartContract-proxy/contracts/Proxy.sol",
  "compiler": {
    "name": "solc",
    "version": "0.5.3+commit.10d17f24.Emscripten.clang"
  },
  "schemaVersion": "3.0.23",
  "updatedAt": "2020-05-19T07:07:36.464Z",
  "devdoc": {
    "methods": {
      "constructor": {
        "details": "constructor that sets the owner address"
      },
      "upgradeTo(address)": {
        "details": "Upgrades the Course contract address",
        "params": {
          "_newCourse": "address of new/updated course contract"
        }
      }
    },
    "title": "Proxy This contract delegate's calls to Logic implementation contract with the help of its fallback function. also enables Logic implementation contract to be upgraded."
  },
  "userdoc": {
    "methods": {}
  }
}