{
  "contractName": "Storage",
  "abi": [
    {
      "constant": true,
      "inputs": [],
      "name": "totallStudents",
      "outputs": [
        {
          "name": "",
          "type": "uint256"
        }
      ],
      "payable": false,
      "stateMutability": "view",
      "type": "function"
    },
    {
      "constant": true,
      "inputs": [],
      "name": "owner",
      "outputs": [
        {
          "name": "",
          "type": "address"
        }
      ],
      "payable": false,
      "stateMutability": "view",
      "type": "function"
    },
    {
      "constant": true,
      "inputs": [],
      "name": "teacher",
      "outputs": [
        {
          "name": "",
          "type": "address"
        }
      ],
      "payable": false,
      "stateMutability": "view",
      "type": "function"
    }
  ],
  "bytecode": "0x608060405234801561001057600080fd5b50610192806100206000396000f3fe608060405234801561001057600080fd5b506004361061005e576000357c010000000000000000000000000000000000000000000000000000000090048063790f33cd146100635780638da5cb5b14610081578063b46bff89146100cb575b600080fd5b61006b610115565b6040518082815260200191505060405180910390f35b61008961011b565b604051808273ffffffffffffffffffffffffffffffffffffffff1673ffffffffffffffffffffffffffffffffffffffff16815260200191505060405180910390f35b6100d3610141565b604051808273ffffffffffffffffffffffffffffffffffffffff1673ffffffffffffffffffffffffffffffffffffffff16815260200191505060405180910390f35b60045481565b600160009054906101000a900473ffffffffffffffffffffffffffffffffffffffff1681565b6000809054906101000a900473ffffffffffffffffffffffffffffffffffffffff168156fea165627a7a72305820ea0d338e129a1095a777920a731b4b6a246ce9368d057134623bdc6b88582bd70029",
  "source": "pragma solidity ^0.5.3;\n\n/**\n* @title Storage\n* this contract stores the storage structure and inherited by both Proxy and Logic contract i.e: CourseV1\n */\ncontract Storage {\n    // Teacher - teaching Course\n    address public teacher;\n    // Owner of proxy contract\n    address public owner;\n    // Course - smartcontract address\n    address internal course;\n    // mapping (student => marks)\n    mapping (address => uint) internal marks;\n    // totall students enrolled in Course\n    uint public totallStudents;\n}",
  "sourcePath": "/home/malik/STO-tokenization/UpgradeableSmartContract-proxy/contracts/Storage.sol",
  "compiler": {
    "name": "solc",
    "version": "0.5.3+commit.10d17f24.Emscripten.clang"
  },
  "schemaVersion": "3.0.23",
  "updatedAt": "2020-05-19T07:07:36.466Z",
  "devdoc": {
    "methods": {},
    "title": "Storage this contract stores the storage structure and inherited by both Proxy and Logic contract i.e: CourseV1"
  },
  "userdoc": {
    "methods": {}
  }
}