{
  "contractName": "System",
  "abi": [
    {
      "constant": true,
      "inputs": [
        {
          "name": "",
          "type": "string"
        }
      ],
      "name": "tokens",
      "outputs": [
        {
          "name": "",
          "type": "address"
        }
      ],
      "payable": false,
      "stateMutability": "view",
      "type": "function"
    },
    {
      "constant": false,
      "inputs": [],
      "name": "renounceOwnership",
      "outputs": [],
      "payable": false,
      "stateMutability": "nonpayable",
      "type": "function"
    },
    {
      "constant": true,
      "inputs": [],
      "name": "owner",
      "outputs": [
        {
          "name": "",
          "type": "address"
        }
      ],
      "payable": false,
      "stateMutability": "view",
      "type": "function"
    },
    {
      "constant": true,
      "inputs": [],
      "name": "isOwner",
      "outputs": [
        {
          "name": "",
          "type": "bool"
        }
      ],
      "payable": false,
      "stateMutability": "view",
      "type": "function"
    },
    {
      "constant": true,
      "inputs": [],
      "name": "_tokenization",
      "outputs": [
        {
          "name": "",
          "type": "address"
        }
      ],
      "payable": false,
      "stateMutability": "view",
      "type": "function"
    },
    {
      "constant": false,
      "inputs": [
        {
          "name": "newOwner",
          "type": "address"
        }
      ],
      "name": "transferOwnership",
      "outputs": [],
      "payable": false,
      "stateMutability": "nonpayable",
      "type": "function"
    },
    {
      "anonymous": false,
      "inputs": [
        {
          "indexed": false,
          "name": "name",
          "type": "string"
        },
        {
          "indexed": false,
          "name": "symbol",
          "type": "string"
        },
        {
          "indexed": false,
          "name": "supply",
          "type": "uint256"
        },
        {
          "indexed": true,
          "name": "contractAddress",
          "type": "address"
        }
      ],
      "name": "Tokenization",
      "type": "event"
    },
    {
      "anonymous": false,
      "inputs": [
        {
          "indexed": true,
          "name": "name",
          "type": "bytes32"
        },
        {
          "indexed": false,
          "name": "uri",
          "type": "string"
        },
        {
          "indexed": false,
          "name": "documentHash",
          "type": "bytes32"
        }
      ],
      "name": "Document",
      "type": "event"
    },
    {
      "anonymous": false,
      "inputs": [
        {
          "indexed": false,
          "name": "symbol",
          "type": "string"
        },
        {
          "indexed": true,
          "name": "owner",
          "type": "address"
        },
        {
          "indexed": true,
          "name": "contractAddress",
          "type": "address"
        }
      ],
      "name": "Issued",
      "type": "event"
    },
    {
      "anonymous": false,
      "inputs": [
        {
          "indexed": true,
          "name": "from",
          "type": "address"
        },
        {
          "indexed": false,
          "name": "to",
          "type": "address"
        },
        {
          "indexed": false,
          "name": "value",
          "type": "uint256"
        },
        {
          "indexed": true,
          "name": "symbol",
          "type": "string"
        }
      ],
      "name": "Withdraw",
      "type": "event"
    },
    {
      "anonymous": false,
      "inputs": [
        {
          "indexed": true,
          "name": "previousOwner",
          "type": "address"
        },
        {
          "indexed": true,
          "name": "newOwner",
          "type": "address"
        }
      ],
      "name": "OwnershipTransferred",
      "type": "event"
    },
    {
      "constant": false,
      "inputs": [
        {
          "name": "name",
          "type": "string"
        },
        {
          "name": "symbol",
          "type": "string"
        },
        {
          "name": "supply",
          "type": "uint256"
        }
      ],
      "name": "tokenize",
      "outputs": [
        {
          "name": "",
          "type": "bool"
        }
      ],
      "payable": false,
      "stateMutability": "nonpayable",
      "type": "function"
    },
    {
      "constant": false,
      "inputs": [
        {
          "name": "symbol",
          "type": "string"
        },
        {
          "name": "owner",
          "type": "address"
        }
      ],
      "name": "issueTokens",
      "outputs": [
        {
          "name": "",
          "type": "bool"
        }
      ],
      "payable": false,
      "stateMutability": "nonpayable",
      "type": "function"
    },
    {
      "constant": false,
      "inputs": [
        {
          "name": "from",
          "type": "address"
        },
        {
          "name": "to",
          "type": "address"
        },
        {
          "name": "value",
          "type": "uint256"
        },
        {
          "name": "symbol",
          "type": "string"
        }
      ],
      "name": "withdraw",
      "outputs": [
        {
          "name": "",
          "type": "bool"
        }
      ],
      "payable": false,
      "stateMutability": "nonpayable",
      "type": "function"
    },
    {
      "constant": false,
      "inputs": [
        {
          "name": "name",
          "type": "bytes32"
        },
        {
          "name": "uri",
          "type": "string"
        },
        {
          "name": "documentHash",
          "type": "bytes32"
        },
        {
          "name": "tokenSymbol",
          "type": "string"
        }
      ],
      "name": "setDocument",
      "outputs": [
        {
          "name": "",
          "type": "bool"
        }
      ],
      "payable": false,
      "stateMutability": "nonpayable",
      "type": "function"
    },
    {
      "constant": true,
      "inputs": [
        {
          "name": "tokenSymbol",
          "type": "string"
        }
      ],
      "name": "getTokenContract",
      "outputs": [
        {
          "name": "",
          "type": "address"
        }
      ],
      "payable": false,
      "stateMutability": "view",
      "type": "function"
    }
  ],
  "bytecode": "0x608060405260006100176001600160e01b0361006616565b600080546001600160a01b0319166001600160a01b0383169081178255604051929350917f8be0079c531659141344cd1fd0a4f28419497f9722a3daafe3b4186f6b6457e0908290a35061006a565b3390565b6124b9806100796000396000f3fe60806040523480156200001157600080fd5b5060043610620000a65760003560e01c806304c2320b14620000ab5780630eda66c61462000171578063381c4fce146200024c5780634f06563214620002c0578063715018a614620003545780638da5cb5b14620003605780638f32d59b146200036a578063a2aebf5b1462000374578063c547f4a21462000446578063f2fde38b1462000450578063f32975c11462000479575b600080fd5b6200015560048036036020811015620000c357600080fd5b810190602081018135600160201b811115620000de57600080fd5b820183602082011115620000f157600080fd5b803590602001918460018302840111600160201b831117156200011357600080fd5b91908080601f016020809104026020016040519081016040528093929190818152602001838380828437600092019190915250929550620004f6945050505050565b604080516001600160a01b039092168252519081900360200190f35b62000238600480360360608110156200018957600080fd5b810190602081018135600160201b811115620001a457600080fd5b820183602082011115620001b757600080fd5b803590602001918460018302840111600160201b83111715620001d957600080fd5b919390929091602081019035600160201b811115620001f757600080fd5b8201836020820111156200020a57600080fd5b803590602001918460018302840111600160201b831117156200022c57600080fd5b9193509150356200051c565b604080519115158252519081900360200190f35b62000155600480360360208110156200026457600080fd5b810190602081018135600160201b8111156200027f57600080fd5b8201836020820111156200029257600080fd5b803590602001918460018302840111600160201b83111715620002b457600080fd5b50909250905062000796565b6200023860048036036080811015620002d857600080fd5b6001600160a01b03823581169260208101359091169160408201359190810190608081016060820135600160201b8111156200031357600080fd5b8201836020820111156200032657600080fd5b803590602001918460018302840111600160201b831117156200034857600080fd5b509092509050620007d0565b6200035e620009df565b005b6200015562000a63565b6200023862000a72565b62000238600480360360808110156200038c57600080fd5b81359190810190604081016020820135600160201b811115620003ae57600080fd5b820183602082011115620003c157600080fd5b803590602001918460018302840111600160201b83111715620003e357600080fd5b91939092823592604081019060200135600160201b8111156200040557600080fd5b8201836020820111156200041857600080fd5b803590602001918460018302840111600160201b831117156200043a57600080fd5b50909250905062000a98565b6200015562000cbf565b6200035e600480360360208110156200046857600080fd5b50356001600160a01b031662000cce565b62000238600480360360408110156200049157600080fd5b810190602081018135600160201b811115620004ac57600080fd5b820183602082011115620004bf57600080fd5b803590602001918460018302840111600160201b83111715620004e157600080fd5b9193509150356001600160a01b031662000d27565b80516020818301810180516001825292820191909301209152546001600160a01b031681565b60006200052862000a72565b62000569576040805162461bcd60e51b8152602060048201819052602482015260008051602062002445833981519152604482015290519081900360640190fd5b60006001600160a01b0316600185856040518083838082843791909101948552505060405192839003602001909220546001600160a01b0316929092149150620005fa9050576040805162461bcd60e51b815260206004820152601b60248201527a546f6b656e2053796d626f6c20616c72656164792065786973747360281b604482015290519081900360640190fd5b85858585856040516200060d9062000fb1565b6040810182905260608082528101859052806020810160808201888880828437600083820152601f01601f1916909101848103835286815260200190508686808284376000838201819052604051601f909201601f19169093018190039a509850909650505050505050f0801580156200068b573d6000803e3d6000fd5b50600280546001600160a01b0319166001600160a01b0392831617908190556040519116906001908690869080838380828437919091019485525050604080516020948190038501812080546001600160a01b0319166001600160a01b03978816179055600254918101889052606080825281018b90529416937f923b2bbb315aef02540dd5f555064e4506c2c5ba68ff74615edd58a207584829938b93508a9250899189918991908190810160808201888880828437600083820152601f01601f191690910184810383528681526020019050868680828437600083820152604051601f909101601f1916909201829003995090975050505050505050a250600195945050505050565b6000600183836040518083838082843791909101948552505060405192839003602001909220546001600160a01b03169250505092915050565b6000620007dc62000a72565b6200081d576040805162461bcd60e51b8152602060048201819052602482015260008051602062002445833981519152604482015290519081900360640190fd5b60006001600160a01b0316600184846040518083838082843791909101948552505060405192839003602001909220546001600160a01b031692909214159150620008ad9050576040805162461bcd60e51b8152602060048201526019602482015278105cdcd95d081a5cdb89dd081d1bdad95b9a5e9959081e595d603a1b604482015290519081900360640190fd5b600183836040518083838082843791909101948552505060408051938490036020908101852054600280546001600160a01b0319166001600160a01b039283161790819055636ce5768960e11b87528c821660048801528b82166024880152604487018b9052925192169463d9caed12945060648082019450919291908290030181600087803b1580156200094157600080fd5b505af115801562000956573d6000803e3d6000fd5b505050506040513d60208110156200096d57600080fd5b50506040518390839080838380828437604080519390910183900383206001600160a01b038c81168552602085018c905282519197508d1695507f8c73b702b261c879bc4ebea83f44bd0c9a90cffb4aa0f324e52750d831b9cb4f94509283900301919050a350600195945050505050565b620009e962000a72565b62000a2a576040805162461bcd60e51b8152602060048201819052602482015260008051602062002445833981519152604482015290519081900360640190fd5b600080546040516001600160a01b039091169060008051602062002465833981519152908390a3600080546001600160a01b0319169055565b6000546001600160a01b031690565b600080546001600160a01b031662000a8962000f1c565b6001600160a01b031614905090565b600062000aa462000a72565b62000ae5576040805162461bcd60e51b8152602060048201819052602482015260008051602062002445833981519152604482015290519081900360640190fd5b60006001600160a01b0316600184846040518083838082843791909101948552505060405192839003602001909220546001600160a01b03169290921415915062000b709050576040805162461bcd60e51b8152602060048201526014602482015273546f6b656e20646f65736e27742065786973747360601b604482015290519081900360640190fd5b600183836040518083838082843791909101948552505060405192839003602001832054600280546001600160a01b0319166001600160a01b0392831617908190556283246560e11b8552600485018c8152604486018a9052606060248701908152606487018c9052919092169463010648ca94508c93508b928b928b92608401858580828437600081840152601f19601f82011690508083019250505095505050505050600060405180830381600087803b15801562000c3057600080fd5b505af115801562000c45573d6000803e3d6000fd5b50505050867f89730c201d2df6a4cef4e892559e63e022078b0ee939d11b6ced61fb098b282487878760405180806020018381526020018281038252858582818152602001925080828437600083820152604051601f909101601f1916909201829003965090945050505050a25060019695505050505050565b6002546001600160a01b031681565b62000cd862000a72565b62000d19576040805162461bcd60e51b8152602060048201819052602482015260008051602062002445833981519152604482015290519081900360640190fd5b62000d248162000f20565b50565b600062000d3362000a72565b62000d74576040805162461bcd60e51b8152602060048201819052602482015260008051602062002445833981519152604482015290519081900360640190fd5b60006001600160a01b0316600185856040518083838082843791909101948552505060405192839003602001909220546001600160a01b03169290921415915062000e049050576040805162461bcd60e51b8152602060048201526019602482015278105cdcd95d081a5cdb89dd081d1bdad95b9a5e9959081e595d603a1b604482015290519081900360640190fd5b60018484604051808383808284379190910194855250506040805193849003602001842054600280546001600160a01b0319166001600160a01b0392831617908190556371e928af60e01b8652878216600487015291519116936371e928af9350602480820193506000929182900301818387803b15801562000e8657600080fd5b505af115801562000e9b573d6000803e3d6000fd5b505060025460408051602080825281018890526001600160a01b03928316945091861692507ff228cd027ebf49346ff4815695125049858db5aff2cb157f57561fd7d6beb55191889188919081908101848480828437600083820152604051601f909101601f19169092018290039550909350505050a35060019392505050565b3390565b6001600160a01b03811662000f675760405162461bcd60e51b81526004018080602001828103825260268152602001806200241f6026913960400191505060405180910390fd5b600080546040516001600160a01b03808516939216916000805160206200246583398151915291a3600080546001600160a01b0319166001600160a01b0392909216919091179055565b61145f8062000fc08339019056fe60806040523480156200001157600080fd5b506040516200145f3803806200145f833981810160405260608110156200003757600080fd5b8101908080516401000000008111156200005057600080fd5b820160208101848111156200006457600080fd5b81516401000000008111828201871017156200007f57600080fd5b505092919060200180516401000000008111156200009c57600080fd5b82016020810184811115620000b057600080fd5b8151640100000000811182820187101715620000cb57600080fd5b505060209091015190925090506000620000ed6001600160e01b036200018516565b600080546001600160a01b0319166001600160a01b0383169081178255604051929350917f8be0079c531659141344cd1fd0a4f28419497f9722a3daafe3b4186f6b6457e0908290a35082516200014c9060019060208601906200018a565b508151620001629060029060208501906200018a565b506004805460ff19166012179081905560ff16600a0a02600355506200022c9050565b335b90565b828054600181600116156101000203166002900490600052602060002090601f016020900481019282601f10620001cd57805160ff1916838001178555620001fd565b82800160010185558215620001fd579182015b82811115620001fd578251825591602001919060010190620001e0565b506200020b9291506200020f565b5090565b6200018791905b808211156200020b576000815560010162000216565b611223806200023c6000396000f3fe608060405234801561001057600080fd5b50600436106100db5760003560e01c8063010648ca146100e057806306fdde0314610157578063095ea7b3146101d457806318160ddd1461021457806323b872dd1461022e578063313ce5671461026457806370a0823114610282578063715018a6146102a857806371e928af146102b05780638da5cb5b146102d65780638f32d59b146102fa57806395d89b4114610302578063a9059cbb1461030a578063b10d6b4114610336578063d9caed12146103d2578063dd62ed3e14610408578063f2fde38b14610436575b600080fd5b610155600480360360608110156100f657600080fd5b81359190810190604081016020820135600160201b81111561011757600080fd5b82018360208201111561012957600080fd5b803590602001918460018302840111600160201b8311171561014a57600080fd5b91935091503561045c565b005b61015f61051c565b6040805160208082528351818301528351919283929083019185019080838360005b83811015610199578181015183820152602001610181565b50505050905090810190601f1680156101c65780820380516001836020036101000a031916815260200191505b509250505060405180910390f35b610200600480360360408110156101ea57600080fd5b506001600160a01b0381351690602001356105b2565b604080519115158252519081900360200190f35b61021c610668565b60408051918252519081900360200190f35b6102006004803603606081101561024457600080fd5b506001600160a01b0381358116916020810135909116906040013561066e565b61026c6107a0565b6040805160ff9092168252519081900360200190f35b61021c6004803603602081101561029857600080fd5b50356001600160a01b03166107a9565b6101556107c4565b610155600480360360208110156102c657600080fd5b50356001600160a01b0316610843565b6102de61099a565b604080516001600160a01b039092168252519081900360200190f35b6102006109a9565b61015f6109cd565b6102006004803603604081101561032057600080fd5b506001600160a01b038135169060200135610a2b565b6103536004803603602081101561034c57600080fd5b5035610a48565b6040518080602001838152602001828103825284818151815260200191508051906020019080838360005b8381101561039657818101518382015260200161037e565b50505050905090810190601f1680156103c35780820380516001836020036101000a031916815260200191505b50935050505060405180910390f35b610200600480360360608110156103e857600080fd5b506001600160a01b03813581169160208101359091169060400135610b61565b61021c6004803603604081101561041e57600080fd5b506001600160a01b0381358116916020013516610baa565b6101556004803603602081101561044c57600080fd5b50356001600160a01b0316610bd5565b6104646109a9565b6104a3576040805162461bcd60e51b8152602060048201819052602482015260008051602061118f833981519152604482015290519081900360640190fd5b6040805160606020601f86018190040282018101835291810184815290918291908690869081908501838280828437600092018290525093855250505060209182018490528681526007825260409020825180519192610508928492909101906110af565b506020820151816001015590505050505050565b60018054604080516020601f600260001961010087891615020190951694909404938401819004810282018101909252828152606093909290918301828280156105a75780601f1061057c576101008083540402835291602001916105a7565b820191906000526020600020905b81548152906001019060200180831161058a57829003601f168201915b505050505090505b90565b60006001600160a01b038316610600576040805162461bcd60e51b815260206004820152600e60248201526d34b73b30b634b21039b2b73232b960911b604482015290519081900360640190fd5b3360008181526006602090815260408083206001600160a01b03881680855290835292819020869055805186815290519293927f8c5be1e5ebec7d5bd14f71427d1e84f3dd0314c0f7b2291e5b200ac8c7c3b925929181900390910190a35060015b92915050565b60035490565b6001600160a01b03831660009081526006602090815260408083203384529091528120548211156106df576040805162461bcd60e51b8152602060048201526016602482015275696e73756666696369656e7420616c6c6f77616e636560501b604482015290519081900360640190fd5b6001600160a01b03841660009081526006602090815260408083203384529091529020548211610766576001600160a01b038416600090815260066020908152604080832033845290915290205461073d908363ffffffff610c2816565b6001600160a01b038516600090815260066020908152604080832033845290915290205561078b565b6001600160a01b03841660009081526006602090815260408083203384529091528120555b610796848484610c71565b5060019392505050565b60045460ff1690565b6001600160a01b031660009081526005602052604090205490565b6107cc6109a9565b61080b576040805162461bcd60e51b8152602060048201819052602482015260008051602061118f833981519152604482015290519081900360640190fd5b600080546040516001600160a01b03909116906000805160206111af833981519152908390a3600080546001600160a01b0319169055565b61084b6109a9565b61088a576040805162461bcd60e51b8152602060048201819052602482015260008051602061118f833981519152604482015290519081900360640190fd5b610895600354610e06565b6108d9576040805162461bcd60e51b815260206004820152601060248201526f7472616e73666572206661696c75726560801b604482015290519081900360640190fd5b6001600160a01b038116610927576040805162461bcd60e51b815260206004820152601060248201526f34b73b30b634b2103932b1b2b4bb32b960811b604482015290519081900360640190fd5b6003546001600160a01b0382166000908152600560205260409020546109529163ffffffff610e3116565b6001600160a01b03821660008181526005602090815260408083209490945560035484519081529351929391926000805160206111cf8339815191529281900390910190a350565b6000546001600160a01b031690565b600080546001600160a01b03166109be610e89565b6001600160a01b031614905090565b60028054604080516020601f60001961010060018716150201909416859004938401819004810282018101909252828152606093909290918301828280156105a75780601f1061057c576101008083540402835291602001916105a7565b6000610a3f610a38610e89565b8484610c71565b50600192915050565b6000818152600760205260408120546060919060026000196101006001841615020190911604610ab4576040805162461bcd60e51b8152602060048201526012602482015271111bd8dd5b595b9d081b9bdd08199bdd5b9960721b604482015290519081900360640190fd5b60008381526007602090815260409182902060018082015482548551600293821615610100026000190190911692909204601f81018590048502830185019095528482529193919290918491830182828015610b515780601f10610b2657610100808354040283529160200191610b51565b820191906000526020600020905b815481529060010190602001808311610b3457829003601f168201915b5050505050915091509150915091565b6000610b6b6109a9565b61078b576040805162461bcd60e51b8152602060048201819052602482015260008051602061118f833981519152604482015290519081900360640190fd5b6001600160a01b03918216600090815260066020908152604080832093909416825291909152205490565b610bdd6109a9565b610c1c576040805162461bcd60e51b8152602060048201819052602482015260008051602061118f833981519152604482015290519081900360640190fd5b610c2581610e8d565b50565b6000610c6a83836040518060400160405280601e81526020017f536166654d6174683a207375627472616374696f6e206f766572666c6f770000815250610f1b565b9392505050565b6001600160a01b038316610ccc576040805162461bcd60e51b815260206004820152601e60248201527f7472616e736665722066726f6d20746865207a65726f20616464726573730000604482015290519081900360640190fd5b6001600160a01b038216610d26576040805162461bcd60e51b815260206004820152601c60248201527b7472616e7366657220746f20746865207a65726f206164647265737360201b604482015290519081900360640190fd5b604080518082018252601f81527f7472616e7366657220616d6f756e7420657863656564732062616c616e6365006020808301919091526001600160a01b038616600090815260059091529190912054610d8791839063ffffffff610f1b16565b6001600160a01b038085166000908152600560205260408082209390935590841681522054610dbc908263ffffffff610e3116565b6001600160a01b0380841660008181526005602090815260409182902094909455805185815290519193928716926000805160206111cf83398151915292918290030190a3505050565b600081610e2a6001610e1e838263ffffffff610fb216565b9063ffffffff610ff116565b1492915050565b600082820183811015610c6a576040805162461bcd60e51b815260206004820152601b60248201527a536166654d6174683a206164646974696f6e206f766572666c6f7760281b604482015290519081900360640190fd5b3390565b6001600160a01b038116610ed25760405162461bcd60e51b81526004018080602001828103825260268152602001806111486026913960400191505060405180910390fd5b600080546040516001600160a01b03808516939216916000805160206111af83398151915291a3600080546001600160a01b0319166001600160a01b0392909216919091179055565b60008184841115610faa5760405162461bcd60e51b81526004018080602001828103825283818151815260200191508051906020019080838360005b83811015610f6f578181015183820152602001610f57565b50505050905090810190601f168015610f9c5780820380516001836020036101000a031916815260200191505b509250505060405180910390fd5b505050900390565b6000610c6a83836040518060400160405280601a815260200179536166654d6174683a206469766973696f6e206279207a65726f60301b81525061104a565b60008261100057506000610662565b8282028284828161100d57fe5b0414610c6a5760405162461bcd60e51b815260040180806020018281038252602181526020018061116e6021913960400191505060405180910390fd5b600081836110995760405162461bcd60e51b8152602060048201818152835160248401528351909283926044909101919085019080838360008315610f6f578181015183820152602001610f57565b5060008385816110a557fe5b0495945050505050565b828054600181600116156101000203166002900490600052602060002090601f016020900481019282601f106110f057805160ff191683800117855561111d565b8280016001018555821561111d579182015b8281111561111d578251825591602001919060010190611102565b5061112992915061112d565b5090565b6105af91905b80821115611129576000815560010161113356fe4f776e61626c653a206e6577206f776e657220697320746865207a65726f2061646472657373536166654d6174683a206d756c7469706c69636174696f6e206f766572666c6f774f776e61626c653a2063616c6c6572206973206e6f7420746865206f776e65728be0079c531659141344cd1fd0a4f28419497f9722a3daafe3b4186f6b6457e0ddf252ad1be2c89b69c2b068fc378daa952ba7f163c4a11628f55a4df523b3efa265627a7a72305820eb59dede5b5ce09292908a2ee135534c7f216df4d5d5e3c77cdf4c14bc3f475764736f6c634300050a00324f776e61626c653a206e6577206f776e657220697320746865207a65726f20616464726573734f776e61626c653a2063616c6c6572206973206e6f7420746865206f776e65728be0079c531659141344cd1fd0a4f28419497f9722a3daafe3b4186f6b6457e0a265627a7a72305820750c8cdd6c1d1943b3d44a5e7d6c5d784dd2706f536a2252434b0c62a06d54ff64736f6c634300050a0032",
  "source": "pragma solidity ^0.5.0;\n\n\nimport \"openzeppelin-solidity/contracts/ownership/Ownable.sol\";\n import \"openzeppelin-solidity/contracts/utils/Address.sol\";\n\nimport \"./AssetTokenization.sol\";\n\ncontract System is Ownable {\n  using Address for address;\n// (symbol => contractAddress )\nmapping( string => address) public tokens;\n\nAssetTokenization public _tokenization;\n\n  /**\n   * @dev Tokenize the asset according to provided details'.\n   * @param name Asset's tokens name.\n   * @param symbol Token's symbol.\n   * @param supply Tokens total supply which need to be created.\n   * Requirements:\n     *\n     * - only contract owner can perform this action\n   * @return true in case asset is tokenized.\n   */\nfunction tokenize(string calldata name, string calldata symbol, uint256 supply) external onlyOwner returns (bool){\n    require(tokens[symbol] == address(0), \"Token Symbol already exists\");\n     _tokenization = new AssetTokenization(name, symbol, supply );\n    tokens[symbol] = address(_tokenization);\n    emit Tokenization(name, symbol, supply ,address(_tokenization));\n    return true;\n}\n\n  /**\n   * @dev Issue Tokens to given asset owner'.\n   * @param symbol Token's symbol.\n   * @param owner Account of owner to whom tokens to be issued.\n   * Requirements:\n     *\n     * - only contract owner can perform this action\n   * @return true in case tokens issued to owner.\n   */\nfunction issueTokens(string calldata symbol, address owner) external onlyOwner returns (bool) {\n    require(tokens[symbol] != address(0), \"Asset isn't tokenized yet\");\n    _tokenization = AssetTokenization(tokens[symbol]);\n    _tokenization.issue(owner);\n    emit Issued(symbol, owner, address(_tokenization));\n    return true;\n}\n  /**\n   * @dev withdraw tokens from specific account to provided account.\n   * @param from The address from whom tokens to be withdrawn.\n   * @param to The address to transfer tokens.\n   * @param value The value of tokens to be withdrawn.\n   * Requirements:\n     *\n     * - only contract owner can perform this action\n   * @return A boolean that indicates if the operation was successful.\n   */\nfunction withdraw(address from, address to, uint256 value, string calldata symbol) external onlyOwner returns (bool) {\n    require(tokens[symbol] != address(0), \"Asset isn't tokenized yet\");\n    _tokenization = AssetTokenization(tokens[symbol]);\n    _tokenization.withdraw(from,to,value);\n    emit Withdraw(from, to, value, symbol);\n    return true;\n}\n\n  /**\n   * @dev Set document to given token's contract'.\n   * @param name document name.\n   * @param uri document URI where its stored.\n   * @param documentHash has of the document.\n   * @param tokenSymbol symbol of the token whose document to be set.\n   * Requirements:\n     *\n     * - only contract owner can perform this action\n   * @return true in case document is store in asset's contract.\n   */\nfunction setDocument(bytes32 name, string calldata uri, bytes32 documentHash, string calldata tokenSymbol) external onlyOwner returns(bool){\n    require(tokens[tokenSymbol] != address(0), \"Token doesn't exists\");\n     _tokenization = AssetTokenization(tokens[tokenSymbol]);\n    _tokenization.setDocument(name,uri,documentHash);\n    emit Document(name,uri,documentHash);\n    return true;\n}\n\n  /**\n   * @dev Get Token's contract address deployed by tokenize function'.\n   * @param tokenSymbol symbol of the token whose contract address to return.\n   * @return address of token's contract.\n   */\nfunction getTokenContract(string calldata tokenSymbol) external view returns(address){\n    return tokens[tokenSymbol];\n}\n\nevent Tokenization(string name, string symbol, uint256 supply, address indexed contractAddress);\nevent Document(bytes32 indexed name, string uri, bytes32 documentHash);\nevent Issued(string symbol, address indexed owner, address indexed contractAddress);\nevent Withdraw(address indexed from, address to, uint256 value, string indexed symbol);\n}",
  "sourcePath": "/home/malik/STO-tokenization/asset-tokenization/contracts/System.sol",
  "compiler": {
    "name": "solc",
    "version": "0.5.10+commit.5a6ea5b1.Emscripten.clang"
  },
  "schemaVersion": "3.0.23",
  "updatedAt": "2020-06-24T17:50:10.214Z",
  "networkType": "ethereum",
  "devdoc": {
    "methods": {
      "getTokenContract(string)": {
        "details": "Get Token's contract address deployed by tokenize function'.",
        "params": {
          "tokenSymbol": "symbol of the token whose contract address to return."
        },
        "return": "address of token's contract."
      },
      "isOwner()": {
        "details": "Returns true if the caller is the current owner."
      },
      "issueTokens(string,address)": {
        "details": "Issue Tokens to given asset owner'.",
        "params": {
          "owner": "Account of owner to whom tokens to be issued. Requirements:     * - only contract owner can perform this action",
          "symbol": "Token's symbol."
        },
        "return": "true in case tokens issued to owner."
      },
      "owner()": {
        "details": "Returns the address of the current owner."
      },
      "renounceOwnership()": {
        "details": "Leaves the contract without owner. It will not be possible to call `onlyOwner` functions anymore. Can only be called by the current owner.     * NOTE: Renouncing ownership will leave the contract without an owner, thereby removing any functionality that is only available to the owner."
      },
      "setDocument(bytes32,string,bytes32,string)": {
        "details": "Set document to given token's contract'.",
        "params": {
          "documentHash": "has of the document.",
          "name": "document name.",
          "tokenSymbol": "symbol of the token whose document to be set. Requirements:     * - only contract owner can perform this action",
          "uri": "document URI where its stored."
        },
        "return": "true in case document is store in asset's contract."
      },
      "tokenize(string,string,uint256)": {
        "details": "Tokenize the asset according to provided details'.",
        "params": {
          "name": "Asset's tokens name.",
          "supply": "Tokens total supply which need to be created. Requirements:     * - only contract owner can perform this action",
          "symbol": "Token's symbol."
        },
        "return": "true in case asset is tokenized."
      },
      "transferOwnership(address)": {
        "details": "Transfers ownership of the contract to a new account (`newOwner`). Can only be called by the current owner."
      },
      "withdraw(address,address,uint256,string)": {
        "details": "withdraw tokens from specific account to provided account.",
        "params": {
          "from": "The address from whom tokens to be withdrawn.",
          "to": "The address to transfer tokens.",
          "value": "The value of tokens to be withdrawn. Requirements:     * - only contract owner can perform this action"
        },
        "return": "A boolean that indicates if the operation was successful."
      }
    }
  },
  "userdoc": {
    "methods": {}
  }
}